:020000040800F2
:1000000070E00120ED010008814D00088B470008D9
:10001000654D000839060008E17500080000000081
:10002000000000000000000000000000195000085F
:10003000C71C000800000000674F00081B500008A4
:10004000070200080702000807020008070200086C
:100050000702000807020008C91C0008011D00086B
:1000600007020008391D00085D1D0008091C000872
:10007000070200080B1C0008070200080D1C0008FE
:10008000070200080702000807020008070200082C
:10009000070200080702000807020008851D000883
:1000A00007020008515100083D51000807020008EE
:1000B00007020008070200080702000807020008FC
:1000C00007020008070200080702000807020008EC
:1000D00017500008B5540008E9540008070200084A
:1000E00007020008694F000807020008070200081D
:1000F000455200087D510008070200080F1C000847
:1001000007020008070200080702000807020008AB
:10011000555300086D530008070200080702000845
:100120000702000807020008111C00080702000867
:10013000070200080702000807020008070200087B
:10014000070200080702000807020008854D0008A2
:100150000702000807020008131C00080702000835
:10016000070200080702000807020008070200084B
:10017000070200080702000800000000000000005D
:100180000702000807020008A15300080702000840
:10019000070200080702000800000000070200082C
:1001A000070200080702000800000000000000002D
:1001B000070200080000000000000000070200081D
:1001C00007020008070200080702000807020008EB
:1001D0000702000807020008DFF80CD000F094F8CE
:1001E000004800470576000870E001200648804777
:1001F00006480047FEE7FEE7FEE7FEE7FEE7FEE70C
:10020000FEE7FEE7FEE7FEE7D9500008D901000847
:100210002DE9F05F0546002092469B46884606463B
:10022000814640241BE0284641464746224600F0CE
:100230005AF853465A46C01A914110D311461846EF
:10024000224600F041F82D1A67EB01084F4622467E
:100250000120002100F038F817EB00094E41201E64
:10026000A4F10104DFDC484631462A464346BDE896
:10027000F09F40EA01039B0703D009E008C9121F61
:1002800008C0042AFAD203E011F8013B00F8013B50
:10029000521EF9D27047D2B201E000F8012B491E7C
:1002A000FBD270470022F6E710B513460A46044613
:1002B0001946FFF7F0FF204610BD421C10F8011B45
:1002C0000029FBD1801A7047202A04DB203A00FA6B
:1002D00002F1002070479140C2F1200320FA03F39D
:1002E000194390407047202A04DB203A21FA02F09B
:1002F0000021704721FA02F3D040C2F12002914060
:100300000843194670470000064C074D06E0E068B8
:1003100040F0010394E8070098471034AC42F6D34C
:10032000FFF75EFFF47600081477000870B58C18AC
:1003300010F8015B15F0070301D110F8013B2A11F9
:1003400006D110F8012B03E010F8016B01F8016BE6
:100350005B1EF9D12B0705D40023521E0DD401F8E2
:10036000013BFAE710F8013BCB1A921C03E013F8AB
:10037000015B01F8015B521EF9D5A142D8D30020E0
:1003800070BD000070B58EB005462BE10D98007869
:100390008E284ED008DC80280FD082281AD08B28D7
:1003A00023D08C287ED124E090287CD091287BD04B
:1003B00092287AD0AD28F5D1E3E091A103C9CDE927
:1003C0000801062208A9904800F084FA8E4800F03F
:1003D000FBFC06E10D9A50780D9A51888B4A128CDD
:1003E00042F00202894B1A84FBE0874801F076F95B
:1003F000F7E00D98441C3C208DF814008C208DF8FB
:1004000015002068CDF816006068CDF81A000A982B
:10041000CDF81E000B98CDF822003E208DF8260066
:10042000132205A9284601F047F8794801F038F869
:10043000D7E076480D99D1F80110016014220D998A
:10044000491D001DFFF715FF00207049088308466D
:10045000008C40F008000884002205A96D4803F0D4
:1004600061FA002204A96B4803F038FA02A8674B2E
:100470001B1D1A1F05A9009004A801F05BF940F2AA
:10048000E2449DED030AB8EE400A9FED631AC0EE08
:10049000010A00EE104AB8EE400A20EE800ABCEED7
:1004A000C00A03E085E009E029E049E010EE100A07
:1004B000029901FB04065548C66192E00C98421E61
:1004C0000D99491C5548FFF7D4FE55A000680990C6
:1004D000022209A94E4800F02AFA4FF400724F494F
:1004E0004B4800F0F7F94FA000680890012208A9D6
:1004F000474800F01CFA464800F0D2FF71E00C9823
:10050000421E0D99491C4848FFF7B3FE47A00068FA
:100510000990022209A93E4800F009FA4FF400723E
:1005200041493B4800F0D6F93EA0006808900122FE
:1005300008A9374800F0FBF9354800F0B1FF50E05A
:100540000C98421E0D99491C3948FFF792FE39A0BC
:1005500000680990022209A92D4800F0E8F94FF43B
:10056000007233492A4800F0B5F92EA000680890BF
:10057000012208A9264800F0DAF9254800F090FF8A
:100580002FE00C99891C224800F0FAF904463C201F
:100590002070601CDDE90C21FFF76BFE3E210C98FA
:1005A000401C21541A4800F0D7F9194800F078FF90
:1005B00017E00C99891C164800F0E2F904463C202B
:1005C0002070601CDDE90C21FFF753FE3E210C98E2
:1005D000401C21540E4800F0BFF90D4800F060FFA8
:1005E00000BF00BF0AAB0CAA0DA941F23450284449
:1005F00000F0CDF800283FF4C9AE0EB070BD000089
:100600003C828100003E000090110120C4060020C1
:10061000946B01208401002000401C46E806002065
:100620003C9000003E000000E80A00203C910000E1
:10063000E80C00203C92000000BFFEE70346042BBC
:1006400015D007DC7BB1012B0ED0022B0DD0032B74
:1006500012D10BE0202B0BD0212B0AD0222B09D05A
:10066000232B09D107E008E007E006E005E004E0FD
:1006700003E002E001E000E000BF00BF002070479F
:100680000020704710B500220449054805F03EF9E6
:100690000449034805F02CF9002010BD6CD401205A
:1006A0008CC001206CCC012070B504460D4621465B
:1006B000034805F01DF9024805F0EAF8002070BD76
:1006C0008CC0012010B503460C460021084610BD21
:1006D0002DE9F04104460D4600260A48D0F8BC72C8
:1006E000D7F8140210B10120BDE8F0812A46214656
:1006F000044805F00BF9034805F0A0F9064630461A
:10070000F2E700008CC0012010B5034641F23050E2
:10071000C058C0B341F22C50C45841F22450C058C4
:10072000844205D1002441F23050C450A01E10BDB7
:1007300041F22C50C05841F204041C4454F82000EB
:10074000086041F22C50C05841F204241C4454F873
:100750002000106041F22C50C058401C402804D2A8
:1007600041F22C50C058401C03E041F22C50C058BC
:100770003F3841F22C54E050201DC058401E241D2B
:10078000E0500020D3E7FFE74FF0FF30CFE730B570
:10079000044641F230500059A8B341F22C5005599B
:1007A00041F224500059854205D1002541F23050D4
:1007B0000551A81E30BD41F22C50005941F20405EC
:1007C000254455F82000086041F22C50005941F2B0
:1007D0000425254455F82000106041F22C500059A2
:1007E00041F20435254405EBC00521CDC3E90005E0
:1007F00041F22C500059401C402805D241F22C50A7
:100800000059401C04E00DE041F22C5000593F38E3
:1008100041F22C552851281D0059401E2D1D2851EC
:100820000020C7E74FF0FF30C4E730B504460D465F
:1008300041F230500059002849D041F21450204470
:10084000007B00BB41F22C50005941F204012144CD
:1008500051F8201041F21450015141F22C5000592E
:1008600041F20421214451F8200041F21451214465
:100870008860002041F2145121444860012041F277
:1008800014512144087341F2145121444868411C19
:1008900041F214522244516041F214510959095C49
:1008A000297041F214502044406841F2145121440F
:1008B0008968884209D3002041F214512144087309
:1008C000002211462046FFF71FFF002030BD4FF0E9
:1008D000FF30FBE710B5034641F22450C05841F207
:1008E00004041C4444F8201041F22450C05841F242
:1008F00004241C4444F8202041F22450C058401CD9
:10090000402804D241F22450C058401C03E041F278
:100910002450C0583F3841F22454E05041F2305046
:10092000C058401C41F23054E050002010BD2DE969
:10093000F04105460E4614462146284600F020F8B0
:100940000746224631463846FFF793FC284600F01A
:1009500003F80020BDE8F08110B50446002041F204
:1009600004512144087341F204502044826841F24A
:10097000045001592046FFF7ADFF002010BD0000D4
:100980002DE9F04186B004460D4641F22850005949
:100990002844B0F5805F03D3002141F22850015173
:1009A00041F228500159A01C014441F20450015168
:1009B00020448560002041F2045121444860012018
:1009C00041F204512144087341F22850005928444F
:1009D000B0F5805F04D241F228500059284405E068
:1009E00041F2285000592844A0F5805041F2285186
:1009F0000851081F005941F20431214401EBC0069F
:100A0000104F4FF00008424601A9384602F08AFF15
:100A100042466946384602F061FF9DF806009DF89F
:100A20000510C1EB011100EB8100306042F20F7143
:100A30000298081A706000BF41F20450005906B0D5
:100A4000BDE8F0818401002010B5024641F2045057
:100A50001044406841F2045313449B6898420DD2FD
:100A600041F2045313445868431C41F204541444A3
:100A7000636041F204539B5819540BE041F2045057
:100A800010444068401C41F20453134458604FF036
:100A9000FF3010BD0020FCE70146002041F2045267
:100AA0000A44107341F204520A44506070470146F0
:100AB00041F204500844806841F204520A445268EA
:100AC000801A7047014641F23050405870472DE976
:100AD000F04105464FF0FF382C4644F24C002E18EA
:100AE00042F668200059C06800F0200000287FD03E
:100AF00042F668200059006800F02000002877D0F6
:100B000042F668200059006820F0200142F6682073
:100B10000059016042F6682000594068C7B242F6A9
:100B20007020005B00F40070002854D041F20450A3
:100B30003044007B20B94FF400713046FFF720FFAE
:100B40003046FFF7B4FF00280DDA3046FFF7A4FF68
:100B500042F67020005920F4007142F670200151D5
:100B60006FF0010843E03E2F20D141F204503044A1
:100B7000406841F20451314488603046FFF7ECFE92
:100B80003046FFF789FF42F67020005920F40071CB
:100B900042F67020015142F69820405B40F480619B
:100BA00042F6982041534FF0000820E03946304685
:100BB000FFF74AFF401CD0B93046FFF76DFF42F601
:100BC0007020005920F4007142F6702001514FF05E
:100BD000FF380CE00CE03C2F09D142F670200059A0
:100BE00040F4007142F6702001514FF0000800BF40
:100BF0004046BDE8F08100002DE9F04104464FF089
:100C0000FF3841F23450261840000059C06800F007
:100C10002000002878D042F668200059006800F0D3
:100C2000200000287FD042F668200059006820F09C
:100C3000200142F668200059016042F66820005900
:100C40004068C5B2208800F4007000285DD041F2F1
:100C500004503044007B10BB0021284600F034FAD9
:100C60000746002F04DB39463046FFF789FE15E0C2
:100C700000202E4908802E4908803046FFF70CFFDF
:100C8000208820F4007020806FF00208AD2D05D17F
:100C9000208840F4007020804FF0000800BF2946F3
:100CA0003046FFF7D1FE401C00283BD12048018888
:100CB0000088401C1E4A10801C484554104600887D
:100CC00002282FD1194800884DF6DA21884211D127
:100CD00000201649088011460880204600F039FBA4
:100CE000208820F4007020804FF00008204600F09B
:100CF000EFF817E03046FFF7CFFE208820F40070B1
:100D000020806FF001080DE00DE0AD2D0AD12088A4
:100D100040F4007020804FF0000800200349088054
:100D20000349088000BF4046BDE8F0810400002070
:100D300006000020F8B505464FF0FF362C4642F677
:100D400018302F1842F668200059C06800F0800063
:100D500060B342F668200059006800F0800028B3B4
:100D60003846FFF7AFFE002821DD69463846FFF719
:100D70005CFD80B900BF42F668200059006800F0B1
:100D800080000028F7D09DF8001042F66820005936
:100D9000416000260AE042F668200059C06820F051
:100DA000800142F668200059C16000260AE042F640
:100DB00068200059C06820F0800142F66820005980
:100DC000C16000263046F8BD42F668210958C9685E
:100DD00042F28802114342F668221258D1607047ED
:100DE0002DE9FF4104464FF0FF353448006800F418
:100DF000805000285DD100BF42F668200059C068CD
:100E000000F080000028F7D12C480830006840F03E
:100E100080602A4908310860642001F051F842F6E8
:100E2000682000594068C6B242F69820005B40F046
:100E3000080142F69820015321A30FCB8DE80F0043
:100E400004F52A5050F85A1F02918088ADF80C0022
:100E5000208820F4007020806846FFF72EFA0746AD
:100E60003A46694642F618302044FFF760FD2046B6
:100E7000FFF7AAFF204603F047FC0022114644F288
:100E80004C002044FFF740FC0C480830006840F458
:100E900080600A490831086042F69820005B20F023
:100EA000080142F698200153642001F009F800255A
:100EB00000BF284604B0BDE8F081000010040240E5
:100EC0003C424F4E444D41433030303030303E0094
:100ED0000349096841F00801014A116070470000A8
:100EE000103C01402DE9F0410446002700BF42F6C6
:100EF00068200059C06800F080000028F7D1204623
:100F000003F0D6FB208820F4007020801BA5284623
:100F1000FFF7D3F980464246294642F6183020446E
:100F2000FFF705FD2046FFF74FFF204603F0ECFBDF
:100F30000022114644F24C002044FFF7E5FB12A6C4
:100F40003046FFF7BAF980464246314642F618303D
:100F50002044FFF7ECFC2046FFF736FF204603F065
:100F6000D3FB0022114644F24C002044FFF7CCFB97
:100F7000204603F0B3FB3846BDE8F0813C444953BA
:100F8000424F4E443E0000003C53544152545343A0
:100F9000414E3E00000000002DE9FC4104460026C1
:100FA0003148006800F4805000285BD14FF42A508B
:100FB000005D00F0040010B1701EBDE8FC8100BFB0
:100FC00042F668200059C06800F080000028F7D180
:100FD00025480830006840F08060234908310860E7
:100FE000208820F40070208042F69820005B40F0BA
:100FF000080142F6982001531CA52846FFF75DF929
:1010000007463A46294642F618302044FFF78FFC3F
:101010002046FFF7D9FE204603F076FB6A4601A979
:1010200044F24C002044FFF76FFB019800785228EF
:1010300005D10198417842F68220015301E04FF03A
:10104000FF3609480830006840F4806006490831DE
:10105000086042F69820005B20F0080142F69820D4
:10106000015300BF3046A8E7100402403C525353DE
:10107000493E00007CB506460C4615464FF42A5002
:10108000805D00F00100A0B13C208DF800008420BC
:101090008DF801002088ADF80200E8B28DF8040058
:1010A0003E208DF8050006226946304600F004FA1D
:1010B00000BF7CBD0349096841F00801014A116085
:1010C00070470000103C014010B502464FF0FF3061
:1010D000002978D1902A52D01EDC802A43D00EDC21
:1010E000412A3AD006DC302A31D0312A31D0402A88
:1010F00068D130E0422A32D0512A63D131E08B2AC4
:1011000035D004DC822A30D0852A5BD131E08C2AAC
:1011100031D08E2A56D130E0C02A41D00EDCAD2A23
:1011200038D006DC912A2DD0922A2ED0932A49D18C
:101130002EE0B02A30D0B12A44D12FE0A2F1F00342
:10114000052B3FD2DFE803F02E3134383B0001207D
:1011500038E0012036E0012034E0012032E00220B6
:1011600030E081202EE001202CE004202AE0012044
:1011700028E0212026E0112024E01A2022E040F27D
:1011800001201FE040F201201CE040F2012019E0A4
:10119000112017E0892015E0032013E0192011E049
:1011A00002200FE040F201200CE040F2012009E0B3
:1011B00040F2012006E006E040F2012002E040F2A9
:1011C000012000BFB8E0602A6FD02ADC212A6FD04E
:1011D00012DC112A5FD006DC062A68D2DFE802F0B2
:1011E000A94E51545759122A57D0132A57D0142AAE
:1011F00057D0202A5BD156E0402A63D008DC222A4F
:1012000058D0232A58D0302A58D0312AF2D157E06A
:10121000412A59D0422A59D0502A5BD0512AE9D1CB
:101220005AE0AB2A6CD014DC8A2A5FD008DC802A12
:1012300054D0822A54D0832A54D0852A79D153E0BD
:10124000902A55D0912A55D0922A55D0932A70D100
:1012500054E0F02A5ED008DCAC2A53D0AD2A53D03B
:10126000B02A53D0B12A64D152E0F12A55D0F22AE3
:1012700056D0F32A57D0F42A5BD157E040F2012030
:1012800059E040F2012056E040F2012053E00120F5
:1012900051E001204FE002204DE005204BE004200A
:1012A00049E0062047E0152045E011E000E040E07D
:1012B000152040E019203EE019203CE001203AE0F2
:1012C000012038E0012036E0012034E0022032E045
:1012D000022030E001202EE001202CE001202AE055
:1012E000042028E0022026E0212024E0192022E02A
:1012F000012020E001201EE001201CE002201AE075
:10130000022018E0022016E0892014E0032012E0F9
:10131000192010E040F201200DE040F201200AE027
:1013200040F2012007E040F2012004E040F20120F9
:1013300001E0012000BF00BF10BD70B504460D469E
:1013400016463246294641F234502044FFF7DCF974
:1013500070BD10B5044641F234502044FFF7FCFA4A
:1013600010BD70B504460D46294641F23450204464
:10137000FFF76AFB70BD2DE9F047044688464FF041
:10138000FF3941F23450261840000059C06800F07F
:101390002000002879D042F668200059006800F04B
:1013A0002000002871D042F668200059006820F023
:1013B000200142F668200059016042F66820005979
:1013C0004068C5B242F67020005B00F4007000284F
:1013D0004ED041F204503044007B78B94146284653
:1013E000FFF772FE0746002F04DD39463046FFF74F
:1013F000C7FA02E03046FFF74FFB00BF3046FFF769
:1014000056FB002813DD29462046FFF7AAFF401CA3
:10141000F8B93046FFF740FB42F67020005920F43F
:10142000007142F6702001514FF000092CE03E2D72
:1014300010D12046FFF78DFF42F67020005920F4AE
:10144000007142F6702001514FF000092046FFF76D
:1014500031FE19E03046FFF71FFB42F670200059BD
:1014600020F4007142F6702001514FF0FF390BE07B
:101470003C2D09D142F67020005940F4007142F62B
:10148000702001514FF0000900BF4846BDE8F087C9
:1014900070B504460D4629462046FFF7C6F970BDD3
:1014A00042F668210958C96842F28802114342F69F
:1014B00068221258D16070472DE9F04104460E466B
:1014C000154629462046FFF75BFA07462A4631466D
:1014D0003846FEF7CEFE2046FFF73EFA42F6682079
:1014E0000059C06842F28801084342F66821095950
:1014F000C8600020BDE8F081F8B504464FF0FF3623
:10150000254642F668200059C06800F0800060B3AC
:1015100042F668200059006800F0800028B3284691
:10152000FFF7D0FA002821DD69462046FFF7B0FF1B
:1015300080B900BF42F668200059006800F08000C2
:101540000028F7D09DF8001042F66820005941604D
:1015500000260AE042F668200059C06820F08001A9
:1015600042F668200059C16000260AE042F6682071
:101570000059C06820F0800142F668200059C1601F
:1015800000263046F8BD01460A4600BF41F2305001
:1015900080580028FAD1704738B505460C463C20E3
:1015A0008DF8000083208DF801008DF802403E2068
:1015B0008DF8030004226946284600F05FF938BD23
:1015C0002DE9F04104460D461646002700BF207F56
:1015D000012802D10220BDE8F0810120207700BF60
:1015E00002206077DEB92068806800F0400000B11A
:1015F00002E00020E87000BF287803F0C6FC4FEA44
:101600000048687803F0C1FC48EA0028A87803F095
:10161000BCFC48EA0008E87848EA004712E0206885
:10162000806800F0400000B102E00020E87000BFD8
:1016300028780004697840EA0120A9780843E9780D
:1016400040EA014700BFCA20216848625320216850
:10165000486200BF204603F0A4FC60B100BFFF2039
:101660002168486200BF0420607700BF0020207717
:1016700000BF0120AFE7184838402168086068685B
:10168000216888622068806820F480202168886052
:101690002068806800F0200080B9204602F076FBC8
:1016A00060B100BFFF202168486200BF042060775E
:1016B00000BF0020207700BF01208CE700BFFF2083
:1016C0002168486200BF0120607700BF00202077BA
:1016D00000BF00BF7FE700007F7F7F0010B58EB0A6
:1016E0000446002209A9124802F01CF9002208A9A8
:1016F0000F4802F0F3F83C208DF804008A208DF8A2
:1017000005000898CDF80600142209A90DF10A0079
:10171000FEF7AFFD3E208DF81E001B2201A92046DA
:10172000FFF7CAFE2046FFF72EFF0EB010BD0000E7
:10173000840100202DE9704FDDF820C090F8029060
:1017400092F80280B9EB08094FF01808A9FB088944
:101750004FF46169A8FB09A891F8008093F8009004
:10176000B8EB09094FF46168A9FB08891AEB080A6C
:1017700091F8018093F80190B8EB09094FF03C080B
:10178000A9FB08891AEB080A91F8028093F80290E5
:10179000B8EB09081AEB08064FF00009D1F80480ED
:1017A000D8EB090B69EB0909D3F804801BEB08049B
:1017B00049F100054FF0000AD146B4EB0A0A75EB77
:1017C000090804DA761E42F20F7814EB0804CCF80C
:1017D0000060CCF80440BDE8708F2DE9B04314469A
:1017E00090F800C00F78BCEB070C4FF46167ACFBBE
:1017F000078790F801C04F78BCEB070C4FF03C070F
:10180000ACFB077C18EB0708877891F802C0B7EBB0
:101810000C0718EB07054FF0000C4768D7F10009DB
:101820006CEB0C07D1F804C019EB0C0247F1000374
:101830004FF00008C446B2EB080873EB0C0703DA5C
:101840006D1E42F20F77D21925606260BDE8B08349
:1018500070B504460D4616463246294641F23450CC
:101860002044FEF751FF70BD70B504460D46164684
:10187000324629462046FEF747FF70BD2DE9F0416C
:1018800005460E46144621462846FFF779F80746D6
:10189000224631463846FEF7ECFC2846FFF75CF856
:1018A0000020BDE8F0810000F0B587B004467BE180
:1018B000069800788A287BD012DC422879D008DC90
:1018C00030281ED031283DD040285DD0412871D12C
:1018D00076E060286FD080286ED08328F7D1A6E00C
:1018E000AB286AD006DC902868D0912867D092286F
:1018F000EDD1F7E0B02877D0B12876D0C028E6D176
:1019000034E1AE48FFF73FFEAC48FFF769FAAC4858
:10191000008C40F00400AA490884AAA103C9CDE9BB
:101920000301AA48B0F8800A40F00601A748A0F8D1
:10193000801A072203A9A148FFF7BEFD9F48FFF7C1
:1019400043FA30E1A2A103C9CDE903019F48B0F8F1
:10195000800A20F006019D48A0F8801A9848008C63
:1019600020F0080096490884072203A99348FFF74E
:10197000A3FD9248FFF707FE4FF4FA7000F0A0FABB
:101980008E48FFF7AFFA0EE193A0006804908F48ED
:10199000B0F8800A40F004018C48A0F8801A0422B4
:1019A00004A98648FFF788FD8448FFF70DFAFAE09E
:1019B00048E01BE0DFE029E038E09FE07AE085E0E6
:1019C00086A0006804908148B0F8800A20F00401E5
:1019D0007E48A0F8801A042204A97848FFF76CFD1D
:1019E0007648FFF7F1F9DEE0ABE0BAE07CA00068F2
:1019F0000490069840788DF81200042204A96F48DC
:101A0000FFF75AFD6D48FFF7DFF9CCE075A00068DD
:101A10000490069840788DF81200042204A96748C3
:101A2000FFF74AFD6548FFF7CFF9BCE0BBE0069938
:101A300048786D49C98900F0070241EAC2026A4943
:101A4000CA81B0E00698461C0698451D674887780D
:101A5000FF206649887014216846FEF723FC202089
:101A600000900020019002906946614800F03CFA25
:101A700000BF20215E4800F047FB0028F9D001227A
:101A800031465C4802F0CEF8012229465948FFF75A
:101A900097FD202000904FF4441001900020029008
:101AA0006946534800F020FA50498F704348FFF7C9
:101AB00015FE78E050A000680490032204A93F4876
:101AC000FFF7FAFC3D48FFF77FF96CE04BA0006898
:101AD0000490032204A93948FFF7EEFC3748FFF7CA
:101AE00073F960E046A000680490032204A933481B
:101AF000FFF7E2FC3148FFF767F954E02F48FFF7A2
:101B0000F1F90599891C2D48FEF73AFF05463C205E
:101B10002870681CDDE90521FEF7ABFB3E21059826
:101B2000401C29542548FEF717FF2448FFF74CF9BD
:101B30002648B0F8800A20F006012448A0F8801A50
:101B400031E042F67020005940F0100142F670205A
:101B500001512C4805F034FD18492A4805F012FDC2
:101B600021E01649274805F00DFD1CE00698407855
:101B70001E49887017E00599891C1048FEF700FF80
:101B800005463C202870681CDDE90521FEF771FB45
:101B90003E210598401C29540848FEF7DDFE074801
:101BA000FFF712F900BF00BF05AA06A92046FFF7FC
:101BB000C4FB00283FF47CAE07B0F0BD90110120BB
:101BC000C40600203C303E3C403E000090310120E5
:101BD0003C313E3C413E00003C403E003C413E002A
:101BE0003C42003E3C60003E103C01205200002080
:101BF00000040240840100203C903E003C913E00E5
:101C00003C923E00946B01207047704770477047CC
:101C10007047704701680A4BCAB2103AA3FB023200
:101C20001209084B9B5CC365032A04D96FF30901B1
:101C3000091D816502E06FF309018165806D7047C0
:101C4000ABAAAAAAEC760008014600208A6A8B6932
:101C5000002B0FD0B3F5005F1DD08AB3012A30D01E
:101C6000022A2ED0032A04D1C96A11F0807F00D045
:101C7000012070471AB1012A07D0022AF9D1C96A96
:101C800011F0807FF5D001207047C96AB1F1C07FA3
:101C9000FAD1012070475AB1012A0BD0022A07D08D
:101CA000032AF7D1C96AB1F1C07FF3D1012070478F
:101CB00001207047C96A11F0807FFAD00120704777
:101CC000FFE701207047704710B501200849086000
:101CD0000848006800F0010048B10748C08940F09A
:101CE00001010548C18100210448FFF755FC10BDE2
:101CF000143C014010040240103C012014960120C5
:101D000010B50220084908600848006800F0020089
:101D100048B10748C08940F002010548C18101214E
:101D20000448FFF739FC10BD143C01401004024088
:101D3000103C01201496012010B50748006800F0FF
:101D400008000549086030B10846006840F0080006
:101D5000086003F009F810BD143C014010B51020D4
:101D6000054908600548006900F0100018B102211B
:101D70000348FFF711FC10BD143C01400000024075
:101D80001496012010B52020054908600548006917
:101D900000F0200018B103210348FFF7FDFB10BD40
:101DA000143C0140000002401496012070470000DE
:101DB00010B52C4454B108220549204602F0E7FC36
:101DC000042203491031304602F0E1FC10BD00004E
:101DD0009E0000202DE9F041044600F0A3F90546DD
:101DE000DCB1022084F83500002684F834602068D5
:101DF000016821F0010101602068006810F0010F06
:101E000013D000F08FF9401B052809D92020606508
:101E1000032084F83500BDE8F0810120BDE8F081A1
:101E20002068006810F0010FEBD121680868234A90
:101E30001040A3686268D4F810C01A43E36843EA0C
:101E40000C031A4363691A43A3691A43E3691A43EB
:101E5000236A1A431043626A042A03D1236BE26A9D
:101E60001A43104308602068406920F00701606A47
:101E700040EA0105012704280ED1A06A0543E06A63
:101E800050B12046FFF7E0FE30B14020606584F895
:101E900035700120BDE8F081206845612046FFF7DC
:101EA000B9FE94F85C103F2202FA01F18160666588
:101EB00084F835700020BDE8F08100003F8010E01C
:101EC00070B5044600F02EF90546B4F1FF3F02D08C
:101ED00004480078044400F025F9401BA042FAD3DE
:101EE00070BD0000E80000202DE9F84F0022DFF867
:101EF0000492DFF804A2DFF804B24FF0010E0327CA
:101F00004FF00F080EFA02FC0B6803EA0C0363455E
:101F10007DD10C7904F00304012C01D0022C14D1E2
:101F20008568540007FA04F6B543CE6806FA04F44F
:101F30002C438460446824EA0C0C0C79C4F300142C
:101F4000944044EA0C0CC0F804C0D1F804C037EA4D
:101F50000C0C0CD0C4684FEA420C07FA0CF5AC43E9
:101F60008D6805FA0CFC4CEA040CC0F80CC091F822
:101F700004C00CF0030CBCF1020F12D14FEAD20CDA
:101F800000EB8C04256A4FEA427C4FEADC6C08FACD
:101F90000CF6B5430E6906FA0CFC4CEA050CC4F8C5
:101FA00020C004684FEA420C07FA0CF5AC430D79E7
:101FB00005F0030505FA0CFC4CEA040CC0F800C05F
:101FC000D1F804C01CF4403F78D0D9F800C04CF4DC
:101FD000804CC9F800C0D9F800C00CF4804CCDF892
:101FE00000C022F0030C0CF1804505F59835D5F8BA
:101FF00008C89407240F08FA04F62CEA0606A0F194
:10200000804CBCF5003C5FD0A0F1804C00E055E076
:10201000BCF5013C5BD0A0F1804CBCF5023C59D032
:10202000A0F1804CBCF5033C57D0A0F1804CBCF52E
:10203000043C55D0A0F1804CBCF5053C53D0A0F138
:10204000804CBCF5063C51D04FF0070C0CFA04FC58
:102050004CEA060CC5F808C8DAF800C02CEA030CF4
:102060004C6814F4801F01D04CEA030CCAF800C07D
:10207000234CD4F800C02CEA030C4D6815F4001F63
:1020800001D04CEA030CC4F800C01E4CD4F800C0C8
:102090002CEA030C4D6815F4003F01D04CEA030C08
:1020A000C4F800C0DBF800C02CEA030C4C6814F440
:1020B000803F01D04CEA030CCBF800C0521C102A20
:1020C000FFF420AFBDE8F88F4FF0000CBEE74FF0F3
:1020D000010CBBE74FF0020CB8E74FF0030CB5E77B
:1020E0004FF0040CB2E74FF0050CAFE74FF0060CD1
:1020F000ACE7000044380240083C0140003C01408D
:102100000C3C0140043C01400069084201D0012020
:10211000704700207047002A01D081617047090490
:10212000816170470148806870470000E800002026
:10213000024881680278114481607047E8000020FD
:1021400010B50B48016841F400710160016841F469
:1021500080610160016841F480710160032000F03A
:1021600095F8002000F006F800F026F8002010BDD9
:10217000003C024070B504460D4D4FF47A7128784A
:10218000B1FBF0F00B490968B1FBF0F001F0C8FEBB
:1021900008B1012070BD102C07D200222146501E2C
:1021A00000F040F86C60002070BD012070BD0000A0
:1021B000E8000020E400002008B500BF00200090E7
:1021C0001048006840F480400E49086008460068E6
:1021D00000F48040009000BF00BF00BF00200090CE
:1021E000081F006840F08050091F0860084600681A
:1021F00000F08050009000BF00BF042000F046F8BF
:1022000008BD00004438024000280ADB00F01F012E
:10221000012202FA01F14009800000F1E020C0F83B
:102220000011704710B4184B1B68C3F30223C3F1AD
:10223000070CBCF1040F01D94FF0040C1C1D072C36
:1022400001D2002300E0DB1E012404FA0CFCACF1F7
:10225000010C0CEA0101994004FA03F35B1E1A40D9
:102260001143002806DB00F1E020090180F800148A
:1022700010BC704700F00F0000F1E020090180F869
:10228000141D10BC704700000CED00E000F00700CA
:10229000064A11684FF6FF03194041EA002040F05A
:1022A000FD7040F080601060704700000CED00E0B1
:1022B00001680122C0F8D824002280F8CC24886963
:1022C00040F000608861486D40F0030040F08050AD
:1022D00048650020704770470068416200207047E1
:1022E00030B40368586A00291BD0D3F828C000EB2B
:1022F0001C4C00200129A1F101014FF4827408D087
:1023000004EB80055D590CEB154C401CC0B28842B3
:10231000F6D304EB81014CEA0240585030BC002057
:10232000704740EA02409862F8E710B50446D4F8D6
:10233000E00403F02FFF10BD70B504460D4605EB19
:10234000C50304F1140101EB8301CA682946D4F8DE
:10235000E00403F049FE70BD70B504460D4605EB80
:10236000C50304F5157101EB8301CA682946D4F849
:10237000E00403F0A7FE70BD10B50446D4F8E004F5
:1023800003F00AFF10BD11F0800F01F00F0101EB07
:10239000C10100EB810101D0143101E001F515719B
:1023A000006804F002BF70B5044611F0800F01F020
:1023B0000F0000EBC00104EB81014FF001024FF070
:1023C000000502D014314A7002E001F515714D701C
:1023D000087094F89404012808D084F894242068A4
:1023E00004F0CCFB84F89454002070BD022070BD32
:1023F00070B5044601F00F022079824201D9012014
:1024000070BD01F00F0000EBC00011F0800F04EB75
:1024100080004FF001034FF0000503D000F11401DC
:102420004B7002E000F515714D708D700A7094F8D4
:102430009404012808D084F89434206804F016FD30
:1024400084F89454002070BD022070BD01F00F018B
:1024500001EBC10100EB8100D0F86802704770B554
:10246000044611F0800F01F00F0000EBC00104EBF7
:1024700081014FF0010C4FF0000503D0143181F8B9
:1024800001C002E001F515714D7008708A600B7192
:102490004A7802B14883022B00D14D7194F894041C
:1024A000012808D084F894C4206804F0A1FA2846D2
:1024B00084F8945470BD022070BD10B501F00F0C6B
:1024C0000CEBCC0100EB810101F51571CA600B61C9
:1024D00000234B614B7081F800C08379012B00D140
:1024E000CA618279006804F01CFD002010BD70B53F
:1024F00004460D46217905F00F00884201D90120DC
:1025000070BD15F0800F4FF000064FF0010206D0AD
:1025100000EBC00104EB810114314A7006E005EBC9
:10252000C50104EB810101F515714E708A700870C8
:1025300094F89404012808D084F89424206804F0C6
:10254000C1FC15F00F0F02D007E0022070BDA17989
:1025500004F29C42206804F059FC84F89464002042
:1025600070BD10B501F00F0C0CEBCC0100EB81013C
:102570000A624B6200238B6201234B7501F814CF72
:102580008379012B00D1CA618279006804F0C9FC0B
:10259000002010BD2DE9F05F04462568284604F0B0
:1025A000C0FE00287ED1206804F0E7FE002879D024
:1025B000D5F80808C0F30D20C4F8D404206804F04E
:1025C000DCFE10F0020F04D02068416901F0020126
:1025D0004161206804F0D1FE10F0100F36D0206861
:1025E000816921F0100181612F6A07F00F0000EB73
:1025F000C00004EB800000F51576C7F343400228C5
:1026000002D0062812D01CE047F6F070074218D01E
:10261000C7F30A1217462846F16804F0B2FEF068C4
:102620003844F0607069384470610AE0082204F2AE
:102630009C41284604F0A5FE7069C7F30A110844BE
:1026400070612068816941F010018161206804F0A7
:1026500094FE10F4002F4FF0100B4FF0000A4FF0D3
:10266000010967D00026206804F066FE80465FEA14
:1026700008005FD018F0010F56D0F1B2206804F0C6
:1026800074FE074617F0010F07D005EB4610C0F89F
:10269000089B3146204602F0A1FB17F0080F0AD034
:1026A000082000E03FE205EB4611C1F8080B314677
:1026B000204602F06FFB17F0100F03D005EB461019
:1026C000C0F808BB17F0020F1DD0686910F0800F2A
:1026D00005D0D5F8040840F48061C5F8041806EB6D
:1026E000C60004EB800000F51570C178012905D102
:1026F00080F803A0F1B2204600F027FA05EB46115E
:102700000220C1F8080B17F0200F04D005EB46118A
:102710002020C1F8080B17F4005F05D005EB461127
:102720004FF40050C1F8080B761C4FEA5808B8F176
:10273000000F9FD1206804F020FE10F4802F74D089
:10274000206804F0F2FD07460026002F6DD04FF000
:10275000020B17F0010F64D0F1B2206804F0F3FD12
:10276000804618F0010F24D006F00F0009FA00F09F
:10277000D5F834188143C5F8341805EB4610C0F875
:102780000899A079012810D106EBC60004EB80005F
:10279000C269016A114401623EB9606A28B904F253
:1027A0009C420121206804F031FBF1B22046FFF782
:1027B000C3FD18F0080F04D005EB46110820C1F83E
:1027C000080918F0100F04D005EB46111020C1F8CD
:1027D000080918F0400F04D005EB46114020C1F85D
:1027E000080918F0020F15D03146284604F062FDA2
:1027F00006EBC60004EB80001430C178012905D136
:1028000080F803A0F1B2204600F096F905EB4610DF
:10281000C0F808B918F0800F03D03146204602F006
:1028200051FB761C7F08002F93D1206804F0A5FD92
:1028300010F0004F11D0D5F8040820F00101C5F8C0
:10284000041894F8CC04012875D0204600F074FADE
:102850002068416901F000414161206804F08DFD6C
:1028600010F4006F0CD0D5F8080810F0010F02D05A
:10287000204600F0ADFA2068416901F40061416131
:10288000206804F07AFD10F0006F0AD020684169DA
:1028900001F00061416194F8CC04E8B3204600F0F7
:1028A00097FA206804F069FD10F4805F75D0D5F8C0
:1028B000040820F00101C5F804181021206804F074
:1028C000F9FC0021207900281DD94FF67F3205EB55
:1028D0004110C0F80829D0F8003923F40013C0F8DB
:1028E0000039C0F8082BD0F8003B23F40013C0F8DF
:1028F000003BD0F8003B43F00063C0F8003B491CAC
:1029000020798842E3D8D5F81C0840F00111C5F8B9
:102910001C18E07B18B301E014E00CE0D5F8840843
:1029200040F00B01C5F88418D5F8440840F00B01BD
:10293000C5F8441820E084F8CCA400212046FFF715
:10294000CAFC85E784F8CC942068406DC0F383000E
:10295000C4F8D00401212046FFF7BDFCA1E7D5F85B
:10296000140842F22B010143C5F81418D5F81008D9
:1029700040F00B01C5F81018D5F8000820F4FE61EE
:10298000C5F80018A17904F29C42206804F03EFAD0
:102990002068416901F480514161206804F0EDFC38
:1029A00010F4005F16D0206804F070F8206804F07E
:1029B000A8FCE07100F0C2FC23680146E2791846E9
:1029C00004F04CFD204600F0A5F92068416901F4AF
:1029D00000514161206804F0D0FC10F0080F07D0CE
:1029E000204600F0B0F92068416901F0080141611A
:1029F000206804F0C2FC10F0800F17D0A86920F006
:102A00008001A9610126207901280FD906EBC600B3
:102A100004EB800090F85702012803D1F1B2204660
:102A2000FFF7B1FC761C2079B042EFD8206804F0A3
:102A3000A4FC10F4801F22D001262079012819D986
:102A400005EB4610D0F8001906EBC60004EB800039
:102A5000027E012A0AD111F0004F07D080F81790AA
:102A6000F0B240F080012046FFF78DFC761C207903
:102A7000B042E5D82068416901F4801141612068C5
:102A800004F07BFC10F4001F2DD0012021790129D6
:102A900024D905EB4011D1F8001B00EBC00204EB78
:102AA000820292F85832012B14D111F0004F11D04C
:102AB00094F8D43401F4803103F00103994209D130
:102AC00082F85792A96941F08002AA61696911F000
:102AD000800F2AD0401C21798142DAD820684169D0
:102AE00001F400114161206804F047FC10F0804FB0
:102AF00007D02046FFF719FC2068416901F08041AA
:102B00004161206804F039FC10F0040F0BD02068FC
:102B1000456815F0040F02D02046FFF72DFC206811
:102B2000416829434160BDE8F09FD5F8040840F4AE
:102B30000070C5F80408D1E770B504460D46294673
:102B4000D4F8E00403F094FB70BD70B504460D4664
:102B50002946D4F8E00403F0A0FB70BDF8B50446A4
:102B6000002C05D0266894F89504002510B106E0E5
:102B70000120F8BD84F89454204600F069F8032041
:102B800084F89504B6F1A04F00D1A571206804F037
:102B900037F9207C8DF8000094E80F0003F084FFE3
:102BA000022618B184F895640120F8BD0021206840
:102BB00004F00BFC18B184F895640120F8BD0021E5
:102BC0002079012700280FD901EBC10004EB800018
:102BD00047750175C1850576C56105624562481C6A
:102BE000C1B220798842EFD800212079002814D979
:102BF00001EBC10004EB800080F8555280F85412BC
:102C000080F85852C0F85C52C0F86052C0F8645264
:102C1000481CC1B220798842EAD8207C8DF8000097
:102C200094E80F0004F034F818B184F8956401209A
:102C3000F8BD657484F89574207B012802D1204684
:102C4000FFF736FB206804F015F80020F8BD0000FF
:102C500010B59CB00446142117A8FDF723FB58219A
:102C600001A8FDF71FFB2068B0F1A04F4CD1202038
:102C7000019000200D9001A800F0C4F808B1FFF702
:102C800095F800BF002000902048006840F0010047
:102C90001E4908600846006800F00100009000BF6F
:102CA00000BF4FF4C05017900220189000201990D8
:102CB00003201A900A201B9017A91548FFF714F952
:102CC00000BF1248001D006840F080000F49091D38
:102CD000086000BF002000900C481430006840F4E9
:102CE00080400A49143108600846006800F48040BA
:102CF000009000BF00BF00BF002206214320FFF765
:102D000091FA4320FFF780FA1CB010BD3038024022
:102D10000000024070B504460125E079022801D088
:102D2000FFF744F82946D4F8E00403F042FBD4F856
:102D3000E00403F0F7FA70BD10B50446D4F8E004DF
:102D400003F020FB10BD10B50446D4F8E00403F0F6
:102D500023FB10BD10B5044694F8940401280AD052
:102D6000012084F894046174206804F05EFB002064
:102D700084F8940410BD022010BD10B5044604F27E
:102D80009C41D4F8E00403F02AFB10BD10B50446C2
:102D9000206894F8941401290AD0012184F894142D
:102DA000C16811F0400F09D0617B012902D005E014
:102DB000022010BD816B41F480318163206804F0F2
:102DC0004EFA206803F048FF002084F8940410BDF8
:102DD00010B50446D4F8E00403F055FB2068D0F8A1
:102DE000000E40F001002168C1F8000EE07A28B121
:102DF0000348006840F006000149086010BD00006B
:102E000010ED00E02DE9F84F044600252078E14F51
:102E100010F0010F08D03868E16920F0C060084365
:102E20003860E06900B90125207810F0020F08D061
:102E30003868216A20F0C05008433860206A00B921
:102E40000125208810F4005F13D03868A16C20F4AD
:102E5000401008433860A06C00B90125B0F5001F90
:102E600007D13868616920F4F850491E40EA012012
:102E70003860208810F4804F13D03868E16C20F45B
:102E8000400008433860E06C00B90125B0F5000F40
:102E900007D13868616920F4F850491E40EA0120E2
:102EA000386020784FF0000B10F0080F4FF001064B
:102EB0006CD0B948016841F080510160006800F0B1
:102EC00080500090DFF8D492D9F8000040F4807070
:102ED000C9F80000FFF726F98046D9F8000010F481
:102EE000807F0DD1FFF71EF9A0EB0800022802D960
:102EF0000320BDE8F88FD9F8000010F4807FF1D0EE
:102F0000DFF89C92D9F8000000F4407058B3A18C0F
:102F100001F44071814226D0D9F8000020F44070BD
:102F2000A0490E60C1F800B0C9F80000D9F800004F
:102F300010F0010F17D0FFF7F5F88046D9F8000020
:102F400010F0020F0FD141F2883AFFF7EBF8A0EB37
:102F50000800504502D90320BDE8F88FD9F80000D9
:102F600010F0020FF1D0606A4FF4407131EA0002B4
:102F70008D4934D0086820F4F8100860D9F80000B2
:102F8000A18CC1F30B010843C9F800002078DFF8D9
:102F90001C9210F0040F03D094F85400C9F8E0011B
:102FA0002078DFF80C8210F0100F07D0D8F800005E
:102FB000E16A20F440000843C8F80000207810F0CF
:102FC000200F17D0D8F80000216B20F000600843D4
:102FD000C8F80000206BB0F1006F0AD00AE00A6860
:102FE00020F4407022F4F81220F070401043086082
:102FF000C4E70125207810F0400F07D0D8F8000072
:10300000A16A20F080500843C8F80000012D02D0CA
:10301000206880287ED1DFF89CA1CAF868B0FFF74D
:1030200081F88346644D286810F0006F0CD0FFF7DC
:1030300079F8A0EB0B00022802D90320BDE8F88F35
:10304000286810F0006FF2D1206DC9F8D800206810
:103050005A4910F0010F01D0E269A2B110F0020F3D
:1030600001D0226A7AB110F0200F03D0226BB2F1A6
:10307000006F08D010F0400F10D0A06A70B9206B1C
:10308000B0F1006F0AD1A2686068237C40EA821028
:10309000227B120642EA037210430860206810F493
:1030A000005F01D0A26C22B110F4804F15D0E06C0B
:1030B00098B90868C0F30360A3686268000642EA32
:1030C0008312237C40EA0370104308603868A269C9
:1030D00020F01F00521E10433860207810F0800F3F
:1030E0000AD0A2686068237C40EA8210227B120624
:1030F00042EA037210430860CAF86860FFF712F8EA
:103100000646286810F0006F0DD1FFF70BF8801B02
:10311000022800E007E002D90320BDE8F88F286804
:1031200010F0006FF1D0208810F4807F05D038684F
:10313000616B20F0004008433860208810F4007F65
:1031400005D03868A16B20F400400843386020881F
:1031500010F4806F05D03868E16B20F00040084320
:103160003860208810F4006F05D03868216C20F496
:10317000804008433860208810F4805F07D0D8F87A
:103180000000616C20F040400843C8F800000020B7
:10319000BDE8F88F8C380240403802400070004093
:1031A00070380240400E4742083802400010474243
:1031B0009438024000004742003802408438024000
:1031C0002DE9F04704460D46002C13D0DFF854914A
:1031D000D9F80000EFB200F00700A8420DD289F83C
:1031E0000070D9F8000000F00700A84205D00120C7
:1031F000BDE8F0870120BDE8F08720684A4E10F056
:10320000020F14D010F0040F03D0306840F4E050E7
:103210003060207810F0080F03D0306840F4604030
:1032200030603068A16820F0F000084330602078FA
:1032300010F0010F3ED060683C49012808D00228F8
:103240000DD003280BD0096811F0020F28D00AE036
:10325000096811F4003F06D10120BDE8F087096834
:1032600011F0007F19D0316821F00301084330606C
:10327000FEF758FF80463068616800F00C00B0EB44
:10328000810F17D041F2883AFEF74CFFA0EB0800FF
:10329000504508D90320BDE8F0870120BDE8F0873C
:1032A0000120BDE8F0873068616800F00C00B0EBE9
:1032B000810FE9D1D9F8000000F00700A8420AD92F
:1032C00089F80070D9F8000000F00700A84202D089
:1032D0000120BDE8F087207810F0040F05D0306899
:1032E000E16820F4E05008433060207810F0080FC7
:1032F00006D03068216920F4604040EAC1003060A7
:1033000000F042F831680A4AC1F30311515CC84029
:103310000849086008480068FEF72CFF0020BDE857
:10332000F0870000003C02400838024000380240AC
:10333000D4760008E4000020EC000020014800687A
:1033400070470000E400002000B5FFF7F7FF0449D4
:103350000968044AC1F38221515CC84000BD0000E5
:1033600008380240E476000800B5FFF7E7FF04499B
:103370000968044AC1F34231515CC84000BD0000F5
:1033800008380240E476000810B51748006810F0CD
:103390000C01164816D0164B042912D0082911D159
:1033A000144C216801F03F02216811F4800F0AD00B
:1033B0002068C0F38810A0FB03010023FCF728FF5E
:1033C00009E0184610BD21680023C1F38811A1FB54
:1033D0000001FCF71DFF2168C1F30141491C4900B0
:1033E000B0FBF1F010BD0000083802400024F400EA
:1033F00000366E01043802402DE9F84F0446002CD7
:1034000014D02078DFF8508410F0010FA8F10405E3
:1034100065D008F10400016801F00C0104290DD009
:10342000006800F00C00082803D011E00120BDE87E
:10343000F88FD8F8000010F4800F09D0286810F435
:10344000003F4CD06068002849D10120BDE8F88FCA
:103450006068B0F5803F14D0B0F5A02F16D0286872
:1034600020F480302860286820F48020286060687C
:1034700010B3FEF757FE0646286810F4003F0ED042
:103480002DE0286840F480302860F0E7286840F498
:1034900080202860286840F480302860E7E7FEF745
:1034A00041FE801B642802D90320BDE8F88F2868FC
:1034B00010F4003FF3D012E0FEF734FE0646286811
:1034C00010F4003F0BD0FEF72DFE801B642802D9BC
:1034D0000320BDE8F88F286810F4003FF3D120786E
:1034E000DE4F10F0020F4FF0000956D0DC480168A3
:1034F00011F00C0F15D0006800F00C00082804D162
:10350000D8F8000010F4800F0BD0E06878B30120E9
:103510003860FEF707FE0646286810F0020F12D04A
:103520001DE0286810F0020F05D0E068012802D0E5
:103530000120BDE8F88F2868216920F0F80040EAF2
:10354000C100286029E0FEF7EDFD801B022802D9AA
:103550000320BDE8F88F286810F0020FF3D0286828
:10356000216920F0F80040EAC100286015E0FFE77B
:10357000C7F80090FEF7D6FD0646286810F0020F47
:103580000BD0FEF7CFFD801B022802D90320BDE837
:10359000F88F286810F0020FF3D1207810F0080F90
:1035A00033D0B048DFF8C0A26169B9B10121016030
:1035B000FEF7B8FD0646DAF8000010F0020F24D13D
:1035C000FEF7B0FD801B022802D90320BDE8F88F6A
:1035D000DAF8000010F0020FF2D016E0C0F8009008
:1035E000FEF7A0FD0646DAF8000010F0020F0CD03E
:1035F000FEF798FD801B022802D90320BDE8F88F52
:10360000DAF8000010F0020FF2D1207810F0040F69
:103610007BD04FF0000A9548006810F0805F0AD117
:103620009248016841F080510160006800F08050CC
:1036300000904FF0010ADFF838B2DBF8000010F418
:10364000807F1AD1DBF8000040F48070CBF80000D6
:10365000FEF768FD0646DBF8000010F4807F0CD111
:10366000FEF760FD801B022802D90320BDE8F88F19
:10367000DBF8000010F4807FF2D0A0687D4E0128B6
:1036800013D0052816D0306820F001003060306873
:1036900020F004003060A06828B3FEF743FD8346A5
:1036A000306810F0020F0ED034E0306840F00100B6
:1036B0003060F0E7306840F004003060306840F07F
:1036C00001003060E7E7FEF72DFDA0EB0B0141F2B2
:1036D0008830814202D90320BDE8F88F306810F0AD
:1036E000020FF0D016E0FEF71DFD8346306810F0A3
:1036F000020F0FD0FEF716FDA0EB0B0141F2883050
:10370000814203D90320BDE8F88F0BE0306810F048
:10371000020FEFD1BAF1010F04D15448016821F032
:1037200080510160A069E0B34D4909684FF0FF3650
:1037300001F00C0108295AD0022810D0C7F8609077
:10374000FEF7F0FC0446286810F0007F29D0FEF751
:10375000E9FC001B022845D90320BDE8F88FC7F813
:103760006090FEF7DFFC8146286810F0007F0CD0E7
:10377000FEF7D8FCA0EB0900022802D90320BDE81F
:10378000F88F286810F0007FF2D1216AE069A26A00
:103790000843616A06EB5202890141EA024108438B
:1037A00000E055E094F82C1040EA016094F83010E5
:1037B00040EA0170C8F8000001203866FEF7B2FC4C
:1037C0000446286810F0007F42D1FEF7ABFC001BD6
:1037D000022802D90320BDE8F88F286810F0007F86
:1037E000F3D035E0286810F0007FB0D130E0012838
:1037F0002BD0D8F80000E26900F48001914221D179
:10380000226A00F03F0191421CD147F6C071626A02
:103810000140B1EB821F15D1A26A00F4403106EBE2
:103820005202B1EB024F0DD194F82C2000F07061E0
:10383000B1EB026F06D194F8301000F0E040B0EB2D
:10384000017F05D00120BDE8F88F0120BDE8F88F89
:103850000020BDE8F88F0000043802400000474215
:1038600008380240800E4742743802404038024017
:1038700000700040703802407047704710B5044631
:1038800015494FF4003008602168886810F4805FA3
:103890000CD0C86810F4807F08D0C86800F08000A1
:1038A00060F4C070C8602046FFF7E7FF21688868B1
:1038B00010F4005F0CD0C86810F4007F08D0C8680E
:1038C00000F0800060F42070C8602046FFF7D4FF4D
:1038D0000120607710BD0000143C014000B50B468C
:1038E0000068406820F0C00121F07F41080CD870CA
:1038F000C1F3042C83F801C001F03F0C83F802C02F
:10390000C1F342311970002A0AD101F035FBD87099
:10391000587801F031FB5870987801F02DFB9870C1
:10392000002000BD00B50B460168896A5960016836
:103930000969C1F30E019960006800680E490140F1
:10394000C1F305401870C1F3062C83F801C001F0E3
:103950007F0C83F802C0890DD970002A0AD101F0CA
:103960000BFB1870587801F007FB5870987801F03D
:1039700003FB9870002000BD7F7F7F0010B50446D8
:10398000002C02D0607F10B106E0012010BD0020A5
:103990002077204600F042F8022060772068C16856
:1039A00011F0100F05D000200028EFD10121617720
:1039B00010BDCA214162216853204862204601F0AF
:1039C000F0FAD8B92068816821F0400121F4E001C3
:1039D00081602068816862686369114322691A43C3
:1039E000114381602168E0680861206801692289CB
:1039F00041EA02410161204601F0F7FA48B9216825
:103A00000A6C22F480220A6421680A6CA3691A43B2
:103A10000A642268FF215162C6E7000010B596B023
:103A2000044658216846FCF73DFC0D492068884251
:103A300014D1082000900B4809906846FFF7E2F97E
:103A400008B1FEF7B3F901200749086000221146CA
:103A50002920FEF7E7FB2920FEF7D6FB16B010BDA4
:103A600000280040000318003C0E47422DE9F843AF
:103A700003460C46684F4FF4FA484FF47A713868A1
:103A8000B0FBF8F048430090187F01280BD00126C6
:103A90001E7702205877002542B11868806810F020
:103AA000400F25D123E00220BDE8F8831868806824
:103AB00010F0400F00D1E570207801F066FA0204A2
:103AC000607801F062FA42EA0022A07801F05DFA23
:103AD000E178104340EA815294F8200001F055FA51
:103AE000E16942EA006008436169014313E0E5705F
:103AF000E069A178227894F803C041EA0241627833
:103B0000120242EA8C52114394F8202041EA0261E9
:103B1000084361690143A269606840EA020C1A68BF
:103B2000CA2050621A6853205062606AFF244FF026
:103B30000309B0F5807F3CD01868826822F40072D7
:103B400082601868C26802F0800262F42072C2606B
:103B500038684FF47A72B0FBF8F050430090186860
:103B6000009A521E0092009A002A4ED0C26812F0AB
:103B7000020FF5D001621868C0F848C01868816863
:103B800041F4007181601868816841F400518160DE
:103B90002248016841F4003101602148016841F484
:103BA00000310160186844625E771D770020BDE82F
:103BB000F8831868826822F4807282601868C2688C
:103BC00002F0800262F4C072C2601868009A521E4D
:103BD0000092009A92B1C26812F0010FF6D0C16152
:103BE0001868C0F844C01868816841F48071816029
:103BF0001868816841F480518160C9E7446283F8A4
:103C00001D901D770320BDE8F883446283F81D9062
:103C10001D770320BDE8F883E4000020003C01404C
:103C2000083C014070B504460B46207F012805D0B2
:103C3000012626770220607712B109E0022070BDCC
:103C4000587810F0100F03D000F0EF000A305870D1
:103C5000AAB19878D9781A7840EA014059780902CF
:103C600041EA423140EA01052168CA2048622168E0
:103C700053204862204601F094F988B119E0D878C1
:103C800001F083F90204587801F07FF942EA00223A
:103C9000987801F07AF91978104340EA4135E3E762
:103CA000216825F0C00020F07F404860204601F0E8
:103CB0009CF900B966772268FF21516200212177C3
:103CC00070BD00002DE9F04104460D46207F01281B
:103CD0000DD04FF0010884F81C8002206077002787
:103CE00042B12068806810F0400F1BD119E002201B
:103CF000BDE8F0812068806810F0400F00D1EF70BF
:103D0000287801F042F90204687801F03EF942EAAD
:103D10000022A87801F039F9E978104340EA815689
:103D20000BE0EF70A8782978EA7840EA01406978DA
:103D3000090241EA825140EA01062168CA2048622C
:103D4000216853204862204601F02BF990B90E48B3
:103D50002168304008602068816821F480218160FA
:103D60002969E86801432068826811438160204620
:103D700001F03BF908B984F81D802268FF215162E7
:103D80002777BDE8F08100007F7F7F0070B5044693
:103D90000C482168C860FEF7C5F905462068C06870
:103DA00010F0200F0CD1FEF7BDF9401BB0F57A7F63
:103DB00001D9032070BD2068C06810F0200FF2D038
:103DC000002070BD5F3F010070B50446002C09D093
:103DD000606A002540B125616561A56294F85100D3
:103DE00040B10CE0012070BD6068B0F5827FF4D076
:103DF000E561F2E784F85050204600F045F80220D3
:103E000084F851002068016821F040010160A08819
:103E1000218900F4827001F404410843A18901F46E
:103E200000610843217C01F002010843217D01F07B
:103E300001010843218B01F400710843217F01F047
:103E40003801084394F8201001F080010843218DC7
:103E500001F40051084321680860A169042000EAC8
:103E6000114094F8241001F01001014320684160D2
:103E70002068C16921F40061C1616565012084F891
:103E80005100002070BD000010B586B0044614211A
:103E900001A8FCF707FA1F492068884238D100BF03
:103EA000002000901C48006840F480401A490860D7
:103EB0000846006800F48040009000BF00BF00BFCB
:103EC0000020009014481038006840F002001249A9
:103ED000103908600846006800F00200009000BF3A
:103EE00000BF4FF460400190022002900020039038
:103EF000032004900520059001A90848FDF7F4FF70
:103F0000002211462420FEF78DF92420FEF77CF9CB
:103F100006B010BD003800404038024000040240A6
:103F2000401EB0F1807F01D3012070474FF0E021A7
:103F30004861044AF0201070002088610720086161
:103F40000020704723ED00E07047704710B504462D
:103F5000002C03D094F83D0010B107E0012010BD03
:103F6000002084F83C00204600F01EF8022084F86F
:103F70003D00211D206801F07BF9012084F84600F6
:103F800084F83E0084F83F0084F8400084F8410043
:103F900084F8420084F8430084F8440084F8450023
:103FA00084F83D00002010BD38B504463B49206828
:103FB000884218D100BF002000903948006840F4C2
:103FC0000030374908600846006800F4003000906F
:103FD00000BF00BF002211461920FEF723F9192067
:103FE000FEF712F959E02F492068884218D100BF26
:103FF000002000902A48006840F48020284908608A
:104000000846006800F48020009000BF00BF002236
:1040100001211A20FEF706F91A20FEF7F5F83CE018
:104020002149206888421AD100BF002000901C4816
:10403000001F006840F080001949091F0860084609
:10404000006800F08000009000BF00BF0022012146
:104050002C20FEF7E7F82C20FEF7D6F81DE01349D8
:104060002068884219D100BF002000900C48001F32
:10407000006840F480700A49091F0860084600681B
:1040800000F48070009000BF00BF002204212D20AA
:10409000FEF7C8F82D20FEF7B7F838BD0044014000
:1040A0004438024000480140001C0040002000400D
:1040B00070472DE9F04104462068C56806694FF055
:1040C000000716F0020F16D015F0020F13D0F91EDC
:1040D0000161012020772068806910F0030F03D070
:1040E0002046FFF7E5FF05E0204600F090F8204667
:1040F00000F08EF8277716F0040F18D015F0040F93
:1041000015D021686FF00400086102202077206834
:10411000806910F4407F03D02046FFF7C9FF05E017
:10412000204600F074F8204600F072F8277716F069
:10413000080F18D015F0080F15D021686FF008008F
:104140000861042020772068C06910F0030F03D0B5
:104150002046FFF7ADFF05E0204600F058F8204666
:1041600000F056F8277716F0100F18D015F0100F42
:1041700015D021686FF010000861082020772068B2
:10418000C06910F4407F03D02046FFF791FF05E09F
:10419000204600F03CF8204600F03AF8277716F069
:1041A000010F09D015F0010F06D021686FF0010052
:1041B0000861204600F02DF816F0800F09D015F0A8
:1041C000800F06D021686FF0800008612046FFF75D
:1041D000BBFE16F0400F09D015F0400F06D0216845
:1041E0006FF040000861204600F014F816F0200F30
:1041F0000BD015F0200F08D021686FF02000086167
:104200002046BDE8F041FFF7A0BEBDE8F081704751
:1042100070477047704770B50446002C04D094F87E
:104220004100002510B106E0012070BD84F8405027
:10423000204600F023F8242084F841002068C1685B
:1042400021F40051C160204601F0ACF820680169FA
:1042500021F4904101612068416921F02A01416106
:104260002068C16841F40051C1606564202084F871
:10427000410084F842006563002070BD10B586B02F
:104280000446142101A8FCF70DF8F949206888427A
:1042900074D100BF00200090F648006840F4002070
:1042A000F44908600846006800F40020009000BF50
:1042B00000BF00BF00200090EE481038006840F0BA
:1042C0000100EC49103908600846006800F0010060
:1042D000009000BF00BF0320019002200290002048
:1042E0000390032004900820059001A9E248FDF7FF
:1042F000FBFDE248E24908604FF000604860402161
:10430000DF4881600021C1604FF4806101610021BC
:1043100041618161C16101624162FDF75BFD08B1EC
:10432000FDF744FD00BFD648A063846300BFD348B7
:104330003038D4490860400548600021D148816088
:10434000C1604FF480610161002141618161C161FF
:1043500001624162FDF73EFD08B1FDF727FD00BF98
:10436000C848E063846300BF002204213420FDF7C5
:1043700059FF3420FDF748FF78E1FFE7C249206884
:10438000884276D100BF00200090BA48006840F40F
:104390008010B84908600846006800F4801000905A
:1043A00000BF00BF00BF00200090B2481038006876
:1043B00040F00200AF49103908600846006800F07C
:1043C0000200009000BF00BF4FF440700190022037
:1043D000029000200390032004900B20059001A977
:1043E000AA48FDF781FDA5486038A9490860C005C5
:1043F00048600021A6488160C1604FF4806101617E
:10440000002141618161C16101624162FDF7E2FC0D
:1044100008B1FDF7CBFC00BF9D48E063846300BF9B
:10442000964848309B4908604FF0805048604021D2
:10443000984881600021C1604FF4806101610021D2
:1044400041618161C16101624162FDF7C3FC08B154
:10445000FDF7ACFC00BF8F48A063846300BF00225F
:1044600004213520FDF7DEFE3520FDF7CDFEFDE011
:10447000FFE789492068884239D100BF00200090B9
:104480007C48006840F080407A490860084600682F
:1044900000F08040009000BF00BF00BF00200090EF
:1044A00074481038006840F0010072491039086003
:1044B0000846006800F00100009000BF00BF4FF404
:1044C00001400190022002900020039003200490FC
:1044D0000820059001A96848FDF706FD0122032187
:1044E0005220FDF79FFE5220FDF78EFEBEE06B4985
:1044F000206888427ED100BF002000905D48001DEA
:10450000006840F010005B49091D0860084600681B
:1045100000F01000009000BF00BF00BF002000901E
:1045200054481038006840F00100524910390860C2
:104530000846006800F00100009000BF00BF4FF483
:10454000C06001900220029000200390032004909C
:104550000720059001A94848FDF7C6FC504851497D
:1045600008604FF00060486040214E4881600021A3
:10457000C1604FF480610161002141618161C161CD
:104580004FF48031016200214162FDF723FC08B144
:10459000FDF70CFC00BF4348A063846300BF4048A4
:1045A0007838414908604FF00060486000213E487B
:1045B0008160C1604FF480610161002141618161CE
:1045C000C1614FF48031016200214162FDF702FCBC
:1045D00008B1FDF7EBFB00BF3348E063846300BF25
:1045E000012200212520FDF71DFE2520FDF70CFEF0
:1045F0003CE0FFE72D492068884237D100BF00200A
:1046000000901C48006840F400301A4908600846D1
:10461000006800F40030009000BF00BF00BF002021
:10462000009014481038006840F00100114910391A
:1046300008600846006800F00100009000BF00BF5D
:104640000C2001900220029000200390032004908F
:104650000720059001A90848FDF746FC0022032128
:104660002620FDF7DFFD2620FDF7CEFD06B010BDAC
:10467000004C0040403802400000024070600240A0
:1046800084040020E40400200050004000040240A4
:1046900044050020A40500200078004000100140DF
:1046A000B864024004060020640600200044004074
:1046B00010B504460848006840F08060064908606C
:1046C00042F69820005B40F0080142F69820015322
:1046D0006420FDF7F5FB10BD1804024010B5044638
:1046E0000848006840F480600649086042F6982057
:1046F000005B20F0080142F6982001536420FDF78A
:10470000DFFB10BD1804024070B5044642F6982045
:10471000005B40F4006142F6982001530026FDF74B
:1047200001FD054600BF42F61830204400F58050D8
:10473000D0F830050028F6D114E0FDF7F3FC401B5B
:10474000C8280FD942F69820005B40F0200142F6BD
:1047500098200153005B20F4006142F69820015339
:10476000012070BD44F24C00204400F58050D0F888
:1047700030050028E1D042F69820005B20F440612B
:1047800042F6982001530020EBE700BFFEE730B56A
:104790000B46002100BF16E00A24B4EB107F05D9B8
:1047A000302404EB107403F8114005E0412404EBBD
:1047B00010740A3C03F81140000100254C00641CF1
:1047C0001D554C1CE1B29142E6DB30BD08B500BF7F
:1047D000002000902648006840F40010244908603A
:1047E0000846006800F40010009000BF00BF00BF42
:1047F000002000900846006840F4800008600846E9
:10480000006800F48000009000BF00BF0022022179
:104810000B20FDF707FD0B20FDF7F6FC012202211E
:104820000D20FDF7FFFC0D20FDF7EEFC012202211B
:104830000F20FDF7F7FC0F20FDF7E6FC0022022118
:104840002F20FDF7EFFC2F20FDF7DEFC00220221D8
:104850003A20FDF7E7FC3A20FDF7D6FC00220121C3
:104860004620FDF7DFFC4620FDF7CEFC08BD00002A
:104870003038024000B587B0142102A8FBF712FDC2
:1048800000BF002001906148006840F004005F49CB
:1048900008600846006800F00400019000BF00BFF7
:1048A00000BF002001900846006840F080000860CA
:1048B0000846006800F08000019000BF00BF00BF04
:1048C000002001900846006840F00100086008469A
:1048D000006800F00100019000BF00BF00BF002091
:1048E00001900846006840F0020008600846006831
:1048F00000F00200019000BF00BF00224FF46041B1
:104900004348FDF708FC002240214248FDF703FC24
:1049100000224FF480614048FDF7FDFB4FF46040FA
:1049200002900120039000200490059002A93848CD
:10493000FDF7DAFA302002904FF48810039000203F
:10494000049002A93348FDF7CFFA402002900120DD
:10495000039000200490059002A92E48FDF7C4FAA8
:104960008020029000200390049002A92948FDF7BE
:10497000BBFA032002904FF44410039002200490ED
:1049800002A92548FDF7B0FA4FF48060029001209B
:10499000039000200490059002A91F48FDF7A4FA97
:1049A0004FF48150029000200390049002A91A480D
:1049B000FDF79AFAD820029003200390002004907B
:1049C00002A91548FDF790FA002205210620FDF7FF
:1049D00029FC0620FDF718FC012205210720FDF720
:1049E00021FC0720FDF710FC002205210A20FDF71D
:1049F00019FC0A20FDF708FC002205211720FDF70D
:104A000011FC1720FDF700FC07B000BD3038024054
:104A100000080240000002400004024000B591B0CE
:104A200014210CA8FBF73EFC00200B90282101A8C4
:104A3000FBF738FC2A482B490860002048606321B6
:104A40002848816042F20F71C1600021016141611B
:104A50008161FEF793FF08B1FDF7A8F900208DF8FA
:104A600030008DF831008DF832000F901090002248
:104A70000CA91C48FFF726F908B1FDF797F90120AA
:104A80008DF82C008DF82D008DF82E0000208DF86B
:104A90002F0000220BA91348FFF7C4F808B1FDF757
:104AA00085F900208DF804008DF805008DF80600CA
:104AB0000290049005900C48069000200790089002
:104AC00001208DF8240000020A90002201A9054867
:104AD000FEF7CCFF08B1FDF769F911B000BD000089
:104AE00000280040840100200080808010B50E481E
:104AF0000E4908604FF48270486000210B488160C5
:104B0000C160016141614FF4007181610021C161A7
:104B10000162416281620A21C162FFF755F908B161
:104B2000FDF744F910BD000000380040A40100204A
:104B300010B50A480A49086041F2BF2048600021C8
:104B4000074881600F21C160002101618161FFF789
:104B5000FDF908B1FDF72AF910BD0000004401403D
:104B6000FC01002010B50A480A49086040F2AF4035
:104B700048600021074881606321C1600021016114
:104B80008161FFF7E3F908B1FDF710F910BD0000EE
:104B9000004801404402002010B50A480A49086054
:104BA000002048600021084881604FF6FF71C16015
:104BB000002101618161FFF7C9F908B1FDF7F6F83D
:104BC00010BD0000001C00408C02002010B50A48F7
:104BD0000A49086042F27F5048600021074881601E
:104BE0006321C160002101618161FFF7AFF908B164
:104BF000FDF7DCF810BD000000200040D4020020CA
:104C000010B50B480B4908604FF4E13048600021B3
:104C100008488160C16001610C214161002181610E
:104C2000C161FFF7F8FA08B1FDF7C0F810BD000048
:104C3000004C00401C03002010B50B480B490860D5
:104C40004FF496404860002108488160C1600161CE
:104C50000C21416100218161C161FFF7DCFA08B1DB
:104C6000FDF7A4F810BD00000050004064030020D0
:104C700010B50B480B4908604FF4E1304860002143
:104C800008488160C16001610C214161002181619E
:104C9000C161FFF7C0FA08B1FDF788F810BD000048
:104CA00000780040AC03002010B50B480B490860A9
:104CB0004FF496404860002108488160C16001615E
:104CC0000C21416100218161C161FFF7A4FA08B1A3
:104CD000FDF76CF810BD000000100140F403002047
:104CE00010B50B480B4908604FF4E13048600021D3
:104CF00008488160C16001610C214161002181612E
:104D0000C161FFF788FA08B1FDF750F810BD000047
:104D1000004400403C04002010B500220D490E481C
:104D200001F028F908B1FDF741F80C490A4801F0F3
:104D3000E8FB08B1FDF73AF80949074800F0CCFD57
:104D400008B1FDF733F8044801F0B0FC08B1FDF7F5
:104D50002DF810BD680000208CC001204C010020FF
:104D6000B800002000BFFEE710B50348FBF70AFBC0
:104D70000248FCF799FD10BD90110120946B0120B1
:104D80007047000010B50248FDF704FC10BD00009C
:104D900068C3012070B504462068056C00EB411023
:104DA000D0F8081B0C4EB54206D911F4004F03D0C1
:104DB0004FF40041C0F8081B2046FDF7DEFFB54266
:104DC00008D9A079012805D104F29C42012120686C
:104DD00002F01CF8002070BD0A30544F2DE9F0415C
:104DE00004460D462368196C03EB4510D0F8082BD8
:104DF000A77920264FF4004C012F08D02F4FB9423D
:104E00004BD112F4004F3ED0C0F808CB53E02C4BEE
:104E100012F0080F07D099424DD912F4004F4AD032
:104E2000C0F808CB47E012F0200F02D0C0F8086BA2
:104E300041E012F0280F3ED1994205D912F4004FFB
:104E400002D0C0F808CB36E005EBC50104EB8101C8
:104E500001F51571D0F8100B0A6AC0F31200101A90
:104E6000486125B90A693AB1CA681044C860E9B214
:104E70002046FDF771FA1EE004F29C4201212068F1
:104E800001F0C4FFF3E712F0200F01D0C0F8086B67
:104E9000E9B22046FDF760FA0DE045B9D4F86402A6
:104EA00028B904F29C420021184601F0AFFFE9B294
:104EB0002046FDF751FA0020BDE8F0810A31544F39
:104EC0000A30544F2DE9F84F07460E46D7F80080B8
:104ED00006EBC60007EB800000F11404216960694D
:104EE000884202D90120BDE8F88F081AA1688142E2
:104EF00000D20846C01C4FEA900A08EB461915E09C
:104F0000151AA268AA4200D21546E81C4FEA900A78
:104F1000B8790090ABB2F2B24046E16802F018FBFB
:104F2000E0682844E060606928446061D9F81809A5
:104F300080B2504505D322696069904201D2002AAF
:104F4000DED16169206988420AD806F00F0001218C
:104F500001FA00F0D8F8341821EA0000C8F8340843
:104F60000020BDE8F88F704710B50248FEF786FCB8
:104F700010BD000084010020010901EB81014900FE
:104F800000F00F000844C0B2704700210A2804D383
:104F9000491C0A38C0B20A28FAD2090740EA11604F
:104FA00070472DE9F041044600252068C16811F0E2
:104FB000400F17D1C16841F08001C160FDF7B2F820
:104FC0000646042707E0FDF7ADF8801BB0F57A7FB1
:104FD00001D9677701252068C06810F0400F01D122
:104FE000012DF0D12846BDE8F08170B504460025BA
:104FF0002068C16821F08001C1602068806810F0DD
:10500000200F06D12046FEF7C1FE10B104206077C4
:105010000125284670BD7047704710B5FDF788F828
:1050200010BD000000B593B0342106A8FBF73AF993
:10503000142101A8FBF736F900BF00200090244896
:10504000006840F08050224908600846006800F07F
:105050008050009000BF00BF00BF002000901D489E
:10506000006840F440401B4908600846006800F4AE
:105070004040009000BF00BF012006900004079050
:1050800002200C9041050D9118210E91C0210F9125
:1050900002211091042111910221129106A8FEF71C
:1050A000ABF908B1FCF782FE0F20019002200290BC
:1050B000002003904FF480500490002005900321BD
:1050C00001A8FEF77DF808B1FCF770FE13B000BD33
:1050D00040380240007000401448006840F47000FE
:1050E000124908601248006840F001001049086049
:1050F00000200F49083108600D4800680D4908403C
:105100000B4908600C48091D0860081F006820F45E
:105110008020091F0860002005490C3108604FF00D
:1051200000600249803908607047000088ED00E0A7
:1051300000380240FFFFF6FE1030002403480068EC
:1051400020F001000149086070470000104801404C
:1051500010B50748006820F00100054908600548BF
:10516000C069401C0349C8610348FEF7A2FF10BD97
:1051700010440140C4060020FC01002010B58AB094
:105180002848006920F0010026490861264890F867
:105190002000C0F3C0012548B0F8980A21EAD000E9
:1051A00000283CD0204890F8200000F002000028A1
:1051B00035D01F48C08990B31D48C0891D4908607B
:1051C00000211B48C181002203A91B48FEF7AAFB4E
:1051D000002202A91848FEF781FB08AA1249091DFE
:1051E00003A8FCF7FAFA00BF08220023099C204616
:1051F0001946FBF70DF840F2E2420899A1FB0212B2
:1052000040180E4908600846006880B201900948BD
:10521000008882B201A90A48FBF72CFF00BF0AB040
:1052200010BD000000200040C40600209031012085
:10523000103C0120DC00002084010020E000002060
:105240009011012010B50748006820F001000549C1
:1052500008600548FBF7A0FE18B90349034802F0AF
:1052600091F910BD101C004090110120946B012099
:10527000F0B40268324BDFF8CCC0334D334E344CBF
:1052800098420AD0B0F1804F07D0604505D0A842BF
:1052900003D0B04201D0A04203D122F070024F6887
:1052A0003A43984228D0B0F1804F25D0604523D0B2
:1052B000A84221D0B0421FD0A0421DD0A0F1804C06
:1052C000BCF5A03C18D0A0F1804CBCF5A23C13D09A
:1052D000A0F1804CBCF5A43C0ED0A0F1804CBCF5F4
:1052E000C05C09D0A0F1804CBCF5E05C04D0A0F11A
:1052F000804CBCF5005C05D122F44072D1F80CC0A2
:105300004CEA0202D1F814C022F0800242EA0C02F8
:1053100002608A68C2620A688262984201D0A04232
:1053200001D10969016301214161016911F0010F96
:1053300003D0016921F001010161F0BC7047000058
:10534000000001400004004000080040000C004044
:105350000004014010B501210348FCF70CF8024895
:10536000FCF7CAF810BD0000946B012010B54FF493
:1053700080610948FCF7C8FE30B90848FBF7A7FB75
:105380000648FBF7D7FC05E00448FBF735FC03486B
:10539000FCF7B2F810BD000000040240901101209B
:1053A000704700002DE9F041044620680169E26879
:1053B00021F44051114301612169A068E269084369
:1053C0006169114301432068C26822F4037222F428
:1053D00014421143C16020684169A26921F44071FF
:1053E000114341612068A0F18041B1F5883138D086
:1053F000A0F18041B1F58A3133D0A0F18041B1F5FF
:105400008C312ED0A0F18041B1F58E3129D0FDF73D
:105410009BFF8446E16900201927254D3226B1F50E
:10542000004F22D06068830F8200ACFB0701FAF7BF
:10543000EFFE0146A5FB002040097A42424301EB02
:10544000820106EB0111A5FB0121490901F0F002DF
:1054500002EB001001F00F01084421688860BDE8EC
:10546000F081FDF781FF8446D4E761684A1840EB7C
:105470000003ACFB0701FAF7CBFE0346A5FB0010C7
:10548000410918460A016FF01803594300EB8100E7
:1054900006EBC000A5FB0010400900F0F80102EB8C
:1054A000410100F00700084421688860BDE8F081F0
:1054B0001F85EB5110B54FF480610948FCF724FEBD
:1054C00030B90848FBF703FB0648FBF733FC05E05F
:1054D0000448FBF791FB0348FCF70EF810BD0000F1
:1054E0000004024090110120704770B5D0F8C82226
:1054F000D0F8D43200EB8303D3F8C032002B28D08D
:1055000001F00F0C0CEB8C0400EB84050026AC6959
:1055100054B10CEBCC0C02EB8C02D2F81CC0B4FBE7
:10552000FCF20CFB1242B2B1C3F81462D0F8D422E0
:1055300000EB8200D0F8C402D0F810C0BCF1000F1C
:1055400005D00A4603F50471D3F80802E0470020AD
:1055500070BD032070BDAE6100231A4600F0A0FFAD
:10556000F5E770B50446D4F8D40204EB8000D0F817
:10557000C052002D12D0204600F01EFEC5F80C02CD
:10558000D4F8D412D5F8040204EB8101D1F8C41286
:10559000CA6805F503719047002070BD032070BDF7
:1055A00070B50446224D2046297800F00AFD28787F
:1055B000002600F00F0000EB800004EB80008684E2
:1055C0006978204600F0FDFC687800F00F0000EBE1
:1055D000800004EB8000A0F86461A978204600F008
:1055E000F0FCA87800F00F0000EB800004EB8000D6
:1055F0008684C684D4F8D40204EB8000D0F8C012AC
:1056000099B1D0F8C40240688047D4F8D40204EBC2
:105610008000D0F8C00201F0E4F9D4F8D40204EB21
:105620008000C0F8C062C4F8BC62002070BD0000F9
:10563000F800002010B5D0F8D41200EB8100D0F8AB
:10564000C042002C10D0D0F8C41259B194F8000216
:10565000FF2807D08B6894F8012221469847FF2045
:1056600084F80002002010BD032010BD0A21018033
:1056700000487047FC00002070B5064682210C48A7
:1056800000F0F4FB05460121094800F0EFFB044659
:105690008121074800F0EAFB0DB11021A9714021DA
:1056A00004B1A18000B1818043203080004870BDEA
:1056B0000801002070B5064682210D4800F0D6FB97
:1056C000054601210A4800F0D1FB04468121084823
:1056D00000F0CCFB0DB11021A9714FF4007104B1A1
:1056E000A18000B1818043203080014870BD00005E
:1056F0000801002070B5064682210C4800F0B6FB78
:1057000005460121094800F0B1FB04468121074804
:1057100000F0ACFB0DB11021A971402104B1A180B2
:1057200000B1818043203080004870BD0801002016
:105730002DE9F04704464FF4077001F053F9054690
:105740004FF00008002D63D04FF407712846FAF798
:10575000A9FDD4F8D40204EB8000C0F8C052C4F80C
:10576000BC52207C0127494E4FF01009002858D028
:10577000402302223178204600F0A4FD307800F06A
:105780000F0000EB800004EB80008784402302229E
:105790007178204600F096FD707800F00F0000EB65
:1057A000800004EB8000A0F86471B07800F00F0076
:1057B00000EB800004EB8000A0F826900823032271
:1057C000B178204600F07EFDB07800F00F0000EBCD
:1057D000800004EB80008784C5F80482D4F8D402EA
:1057E00004EB8000D0F8C40200688047C5F814823A
:1057F000C5F81882D5F80422002A3CD0207CC8B312
:1058000040237178204600F075FD0020BDE8F08748
:10581000D4F8D40204EB8000C0F8C0820220BDE8B6
:10582000F0874FF4007302223178204600F04AFDE1
:10583000307800F00F0000EB800004EB80008784DC
:105840004FF4007302227178204600F03BFD70781F
:1058500000F00F0000EB800004EB8000A0F8647102
:10586000B07800F00F0000EB800004EB8000A0F89F
:105870002690A3E702E00220BDE8F0874FF4007312
:105880007178204600F036FDBFE70000F8000020E8
:1058900010B5D0F8D41200EB8101D1F8C012002964
:1058A0000CD0027CDFF82CC052B1D1F80422402386
:1058B0009CF8011000F01EFD002010BD032010BD5B
:1058C000D1F804224FF400739CF8011000F012FD8F
:1058D000F2E70000F8000020002907D0D0F8D42219
:1058E00000EB8200C0F8C41200207047032070470C
:1058F000D0F8D42200EB8200D0F8C002002803D0F8
:10590000C0F804120020704703207047D0F8D4324A
:1059100000EB8300D0F8C002002805D0C0F80812C0
:10592000C0F810220020704703207047F0B583B004
:1059300006460C46D6F8D40206EB8000D0F8C072BA
:105940000021029101910025002F0DD0217811F046
:1059500060023BD0202A0AD02146304600F0C9F828
:10596000032503B02846F0BD03B00320F0BDE28854
:1059700012B311F0800F10D0D0F8C40294F801C017
:105980003946836860469847E288072A00D907228B
:105990003946304600F0D3F8E3E7607887F8000234
:1059A000E088402800D34020C2B287F8012239465F
:1059B000304600F0AAF8D4E7D0F8C40294F801C049
:1059C00000228368214660469847CAE7607858B14C
:1059D0000128C6D00A2817D00B2825D021463046EA
:1059E00000F087F80325BCE796F89C02032805D051
:1059F0002146304600F07DF80325B2E7022201A9D6
:105A0000304600F09CF8ACE796F89C02032805D0DD
:105A10002146304600F06DF80325A2E7012202A9D5
:105A2000304600F08CF89CE796F89C02032898D04A
:105A30002146304600F05DF8032592E710B5D0F816
:105A4000D41200EB8101D1F8C0220121002A03D039
:105A5000D2F8143213B117E0032010BD0121C2F8AF
:105A600014120A49D2F810C2097801F00F0303EBAF
:105A7000830300EB8303C3F818C0D2F81032D2F8C6
:105A8000082200F00DFD0021084610BDF80000209E
:105A900010B50024D0F8B8225268904700B1032412
:105AA000204610BD90F89C22012A05D0022A03D07E
:105AB000032A01D000F01DB84988012904D1002132
:105AC000C0F8A41200F048B87047002070470020CA
:105AD000704710B513460A46002100F00BFC002069
